:100000000C9452000C9471000C9471000C947100CB
:100010000C9471000C9471000C9471000C9471009C
:100020000C9471000C9471000C9471000C9471008C
:100030000C9471000C9471000C9471000C9471007C
:100040000C9471000C9471000C9471000C9471006C
:100050000C9471000C9471000C9471000C9471005C
:100060000C9471000C9471000C9471000C9471004C
:100070000C9471000C9471000C9471000C9471003C
:100080000C9471000C9471000C9471004546476506
:10009000666700202B2D2E30313233343536373819
:1000A0003968000011241FBECFEFD0E1DEBFCDBF05
:1000B00011E0A0E0B1E0EAE7F7E000E00BBF02C02A
:1000C00007900D92A83AB107D9F711E0A8EAB1E07C
:1000D00001C01D92AC3AB107E1F70E94A6010C9451
:1000E000BB030C9400008FEF87BB88BB81BB12BAA7
:1000F00084EF91E020E731E0F9013197F1F70197C2
:10010000D9F708958091AA019091AB0189309105AA
:1001100031F001969093AB018093AA010DC08091BC
:10012000A6019091A70101969093A7018093A60143
:100130001092AB011092AA018091A6019091A701A3
:10014000069789F41092A7011092A6011092AB01B4
:100150001092AA018091A8019091A9010196909313
:10016000A9018093A8018091A8019091A9010A9703
:1001700069F41092A9011092A8018091A4019091B4
:10018000A50101969093A5018093A4018091A401FB
:100190009091A501069769F41092A5011092A4010F
:1001A0008091A2019091A30101969093A301809365
:1001B000A2018091A2019091A3010A9769F4109283
:1001C000A3011092A2018091A0019091A10101963A
:1001D0009093A1018093A0018091A0019091A10131
:1001E000029771F48091A2019091A301049741F4C8
:1001F0001092A1011092A0011092A3011092A201ED
:1002000008951F931FEF18BB12BAFC0193E0EE0F85
:10021000FF1F9A95E1F7E60FF71FEE0FFF1FE05063
:10022000FF4F8081809588BB80E090E0BA010E94FA
:10023000AD0182BB81E08A95F1F712BA18BB1F911C
:100240000895FF920F931F938C018FEF88BB80E07E
:1002500090E067E070E00E94AD0182BB24E0F22EE6
:100260008F2D8A95F1F767E070E0601B710B8FEFBF
:1002700090E00E94B80188BB80E090E067E070E009
:100280000E94AD0182BBFA94F1F712BA1F910F914F
:10029000FF900895EF92FF920F931F93CF93DF93F8
:1002A00000E010E0E12C34E2F32E46C08091A00182
:1002B0009091A101BE0140E050E00E9401018091B7
:1002C000A2019091A301BE0141E050E00E94010112
:1002D0008091A4019091A501BE0142E050E00E94EE
:1002E00001018091A8019091A901BE0143E050E075
:1002F0000E9401018091A6019091A701BE0144E0F6
:1003000050E00E9401018091AA019091AB01BE01D1
:1003100045E050E00E940101CE010E942101C70189
:100320000197F1F72196C830D10509F0BFCF0F5FD3
:100330001F4F0D39110519F0C0E0D0E0B7CFDF91A4
:10034000CF911F910F91FF90EF9008950E9473003D
:100350000E944A010E948200FBCF21E030E002C0EF
:10036000220F331F6A95E2F7282B392BC901089514
:1003700021E030E002C0220F331F6A95E2F720959A
:10038000309528233923C901089521E030E002C0C7
:10039000220F331F6A95E2F728273927C9010895EC
:1003A0009C0102C0359527956A95E2F7217030705F
:1003B000C90108959C0102C0359527956A95E2F719
:1003C0002095309521703070C90108956F927F9209
:1003D0008F929F92AF92BF92CF92DF92EF92FF9255
:1003E0000F931F93DF93CF93CDB7DEB72B970FB645
:1003F000F894DEBF0FBECDBF5C014B017A01FC015A
:1004000017821682838181FD08C06FEF7FEF08C1DC
:1004100042E050E0E40EF51E04C03E010894611C69
:10042000711CF501D380F401D3FC8591D3FE819139
:100430004F01882309F4F1C0853259F4D3FC65914A
:10044000D3FE61914F01653219F0062F10E01BC0F9
:1004500085E290E02BC0002309F4DFC083E990E03F
:10046000602F70E00E942603892B39F4033211F4C7
:10047000106103C00C3661F41068F401D3FC0591DF
:10048000D3FE01914F0117FFE6CF002309F4C5C049
:100490008CE890E0602F70E00E942603892B51F0D9
:1004A00044E050E0E40EF51E8FE390E0B5010E94B9
:1004B0003103B7CF033629F0033779F00335F1F470
:1004C0000BC087010E5F1F4FF70180819181B5013D
:1004D0000E9431037801A5CF1160F701C080D1805F
:1004E00004C090E0B5010E943103F60110FD859132
:1004F00010FF81916F018823A1F78ACF043611F094
:10050000093639F517FF08C0F70120813181428192
:10051000538184E090E00AC0F701808191819C01C1
:10052000442737FD4095542F82E090E0E80EF91EF5
:100530001F7E57FF08C050954095309521953F4F3D
:100540004F4F5F4F1064CA01B901A3012AE030E0A8
:1005500034C00037A9F0013730F40835B1F00F3658
:1005600009F05BC006C0053739F0083709F055C0FF
:1005700008C028E030E00CC01F7E2AE030E008C050
:100580001061146220E130E003C0146020E132E029
:1005900017FF08C0F701608171818281938144E077
:1005A00050E008C0F70180819181BC0180E090E0BB
:1005B00042E050E0E40EF51EA3010E945D03D82E38
:1005C000D618012F10E006FF05C08DE290E0B501BE
:1005D0000E94310304FF15C0FE01ED0DF11D808165
:1005E000803379F080E390E0B5010E94310302FF8F
:1005F00008C000721070C801885A9F4FB5010E9450
:100600003103DA94F301ED0DF11D808190E0B50125
:100610000E943103DD20A9F704CFF50166817781BF
:10062000CB012B960FB6F894DEBF0FBECDBFCF9196
:10063000DF911F910F91FF90EF90DF90CF90BF90CF
:10064000AF909F908F907F906F900895FC010590E0
:10065000061621F00020D9F7C00108953197CF0187
:1006600008950F931F93CF93DF938C01EB018B8140
:1006700081FF1BC082FF0DC02E813F818C819D8137
:100680002817390764F4E881F9810193F983E88335
:1006900006C0E885F985802F0995892B31F48E8174
:1006A0009F8101969F838E8302C00FEF1FEFC801C9
:1006B000DF91CF911F910F910895FA01AA27283059
:1006C00051F1203181F1E8946F936E7F6E5F7F4F1F
:1006D0008F4F9F4FAF4FB1E03ED0B4E03CD0670F9B
:1006E000781F891F9A1FA11D680F791F8A1F911DEE
:1006F000A11D6A0F711D811D911DA11D20D009F43E
:1007000068943F912AE0269F11243019305D31937F
:10071000DEF6CF010895462F4770405D4193B3E068
:100720000FD0C9F7F6CF462F4F70405D4A3318F00F
:10073000495D31FD4052419302D0A9F7EACFB4E0C0
:10074000A6959795879577956795BA95C9F7009778
:100750006105710508959B01AC010A2E0694579519
:10076000479537952795BA95C9F7620F731F841F70
:0A077000951FA01D0895F894FFCF17
:10077A0000007C00FE009200A200FE007C00000047
:10078A00000002002200FE00FE000200020000003B
:10079A0000004600CE008A009200F20062000000CB
:1007AA0000004400C60092009200FE006C000000A7
:1007BA0000001800180028006800FE00FE00000073
:1007CA000000E400E600A200A200BE009C000000B7
:1007DA0000007C00FE0092009200DE004C00000047
:1007EA000000C000C0009E00BE00E000C000000083
:1007FA0000006C00FE0092009200FE006C000000F7
:10080A0000006400F60092009200FE007C000000E6
:08081A000100020003000400CC
:00000001FF
